{
  "_format": "hh-sol-artifact-1",
  "contractName": "TrapRoyaltiesPro_ESeal",
  "sourceName": "contracts/TrapRoyaltiesESeal.sol",
  "abi": [
    {
      "anonymous": false,
      "inputs": [
        {
          "indexed": true,
          "internalType": "string",
          "name": "verificationId",
          "type": "string"
        },
        {
          "indexed": false,
          "internalType": "uint256",
          "name": "signatureCount",
          "type": "uint256"
        }
      ],
      "name": "DocumentFullySigned",
      "type": "event"
    },
    {
      "anonymous": false,
      "inputs": [
        {
          "indexed": true,
          "internalType": "string",
          "name": "verificationId",
          "type": "string"
        },
        {
          "indexed": false,
          "internalType": "bytes32",
          "name": "docHash",
          "type": "bytes32"
        },
        {
          "indexed": false,
          "internalType": "uint256",
          "name": "timestamp",
          "type": "uint256"
        },
        {
          "indexed": false,
          "internalType": "address",
          "name": "signer",
          "type": "address"
        }
      ],
      "name": "ESealCreated",
      "type": "event"
    },
    {
      "inputs": [
        {
          "internalType": "string",
          "name": "_vId",
          "type": "string"
        },
        {
          "internalType": "bytes32",
          "name": "_docHash",
          "type": "bytes32"
        },
        {
          "internalType": "bool",
          "name": "_biometricVerified",
          "type": "bool"
        },
        {
          "internalType": "string",
          "name": "_signerName",
          "type": "string"
        }
      ],
      "name": "addSignature",
      "outputs": [],
      "stateMutability": "nonpayable",
      "type": "function"
    },
    {
      "inputs": [
        {
          "internalType": "string",
          "name": "_vId",
          "type": "string"
        },
        {
          "internalType": "bytes32",
          "name": "_docHash",
          "type": "bytes32"
        },
        {
          "internalType": "bytes32",
          "name": "_audioHash",
          "type": "bytes32"
        },
        {
          "internalType": "bool",
          "name": "_biometricVerified",
          "type": "bool"
        },
        {
          "internalType": "string",
          "name": "_signerName",
          "type": "string"
        }
      ],
      "name": "createESeal",
      "outputs": [],
      "stateMutability": "nonpayable",
      "type": "function"
    },
    {
      "inputs": [
        {
          "internalType": "string",
          "name": "_vId",
          "type": "string"
        }
      ],
      "name": "getSignatureCount",
      "outputs": [
        {
          "internalType": "uint256",
          "name": "",
          "type": "uint256"
        }
      ],
      "stateMutability": "view",
      "type": "function"
    },
    {
      "inputs": [
        {
          "internalType": "string",
          "name": "",
          "type": "string"
        }
      ],
      "name": "records",
      "outputs": [
        {
          "internalType": "bytes32",
          "name": "docHash",
          "type": "bytes32"
        },
        {
          "internalType": "bytes32",
          "name": "audioHash",
          "type": "bytes32"
        },
        {
          "internalType": "uint256",
          "name": "timestamp",
          "type": "uint256"
        },
        {
          "internalType": "address",
          "name": "recordedBy",
          "type": "address"
        },
        {
          "internalType": "bool",
          "name": "biometricVerified",
          "type": "bool"
        },
        {
          "internalType": "string",
          "name": "signerName",
          "type": "string"
        },
        {
          "internalType": "bool",
          "name": "isValid",
          "type": "bool"
        }
      ],
      "stateMutability": "view",
      "type": "function"
    },
    {
      "inputs": [
        {
          "internalType": "string",
          "name": "",
          "type": "string"
        },
        {
          "internalType": "uint256",
          "name": "",
          "type": "uint256"
        }
      ],
      "name": "signatures",
      "outputs": [
        {
          "internalType": "address",
          "name": "",
          "type": "address"
        }
      ],
      "stateMutability": "view",
      "type": "function"
    },
    {
      "inputs": [
        {
          "internalType": "string",
          "name": "_vId",
          "type": "string"
        }
      ],
      "name": "verifySeal",
      "outputs": [
        {
          "internalType": "bytes32",
          "name": "docHash",
          "type": "bytes32"
        },
        {
          "internalType": "uint256",
          "name": "timestamp",
          "type": "uint256"
        },
        {
          "internalType": "address[]",
          "name": "signers",
          "type": "address[]"
        },
        {
          "internalType": "bool",
          "name": "biometricVerified",
          "type": "bool"
        }
      ],
      "stateMutability": "view",
      "type": "function"
    }
  ],
  "bytecode": "0x608060405234801561001057600080fd5b506115d5806100206000396000f3fe608060405234801561001057600080fd5b50600436106100625760003560e01c806303e1ac40146100675780634d652d0d14610083578063541e771d1461009f57806362b6a103146100d55780637f2c0c6f14610108578063c6018cae14610138575b600080fd5b610081600480360381019061007c9190610b91565b610168565b005b61009d60048036038101906100989190610c30565b61030f565b005b6100b960048036038101906100b49190610ce3565b61057f565b6040516100cc9796959493929190610e23565b60405180910390f35b6100ef60048036038101906100ea9190610ce3565b610699565b6040516100ff9493929190610f57565b60405180910390f35b610122600480360381019061011d9190610fcf565b61093a565b60405161012f919061102b565b60405180910390f35b610152600480360381019061014d9190610ce3565b61099e565b60405161015f9190611046565b60405180910390f35b600084604051610178919061109d565b908152602001604051809103902060050160009054906101000a900460ff166101d6576040517f08c379a00000000000000000000000000000000000000000000000000000000081526004016101cd90611100565b60405180910390fd5b826000856040516101e7919061109d565b90815260200160405180910390206000015414610239576040517f08c379a00000000000000000000000000000000000000000000000000000000081526004016102309061116c565b60405180910390fd5b600184604051610249919061109d565b9081526020016040518091039020339080600181540180825580915050600190039060005260206000200160009091909190916101000a81548173ffffffffffffffffffffffffffffffffffffffff021916908373ffffffffffffffffffffffffffffffffffffffff160217905550836040516102c6919061109d565b60405180910390207f2e5de76ae6081a2436f222dac98f63901dacaf3f73ec873e847eeb0524acbdf68442336040516103019392919061118c565b60405180910390a250505050565b60008560405161031f919061109d565b908152602001604051809103902060050160009054906101000a900460ff161561037e576040517f08c379a000000000000000000000000000000000000000000000000000000000815260040161037590611235565b60405180910390fd5b6040518060e001604052808581526020018481526020014281526020013373ffffffffffffffffffffffffffffffffffffffff1681526020018315158152602001828152602001600115158152506000866040516103dc919061109d565b908152602001604051809103902060008201518160000155602082015181600101556040820151816002015560608201518160030160006101000a81548173ffffffffffffffffffffffffffffffffffffffff021916908373ffffffffffffffffffffffffffffffffffffffff16021790555060808201518160030160146101000a81548160ff02191690831515021790555060a08201518160040190816104849190611461565b5060c08201518160050160006101000a81548160ff0219169083151502179055509050506001856040516104b8919061109d565b9081526020016040518091039020339080600181540180825580915050600190039060005260206000200160009091909190916101000a81548173ffffffffffffffffffffffffffffffffffffffff021916908373ffffffffffffffffffffffffffffffffffffffff16021790555084604051610535919061109d565b60405180910390207f2e5de76ae6081a2436f222dac98f63901dacaf3f73ec873e847eeb0524acbdf68542336040516105709392919061118c565b60405180910390a25050505050565b6000818051602081018201805184825260208301602085012081835280955050505050506000915090508060000154908060010154908060020154908060030160009054906101000a900473ffffffffffffffffffffffffffffffffffffffff16908060030160149054906101000a900460ff169080600401805461060390611284565b80601f016020809104026020016040519081016040528092919081815260200182805461062f90611284565b801561067c5780601f106106515761010080835404028352916020019161067c565b820191906000526020600020905b81548152906001019060200180831161065f57829003601f168201915b5050505050908060050160009054906101000a900460ff16905087565b6000806060600080856040516106af919061109d565b908152602001604051809103902060050160009054906101000a900460ff1661070d576040517f08c379a00000000000000000000000000000000000000000000000000000000081526004016107049061157f565b60405180910390fd5b6000808660405161071e919061109d565b90815260200160405180910390206040518060e00160405290816000820154815260200160018201548152602001600282015481526020016003820160009054906101000a900473ffffffffffffffffffffffffffffffffffffffff1673ffffffffffffffffffffffffffffffffffffffff1673ffffffffffffffffffffffffffffffffffffffff1681526020016003820160149054906101000a900460ff161515151581526020016004820180546107d690611284565b80601f016020809104026020016040519081016040528092919081815260200182805461080290611284565b801561084f5780601f106108245761010080835404028352916020019161084f565b820191906000526020600020905b81548152906001019060200180831161083257829003601f168201915b505050505081526020016005820160009054906101000a900460ff16151515158152505090508060000151816040015160018860405161088f919061109d565b908152602001604051809103902083608001518180548060200260200160405190810160405280929190818152602001828054801561092357602002820191906000526020600020905b8160009054906101000a900473ffffffffffffffffffffffffffffffffffffffff1673ffffffffffffffffffffffffffffffffffffffff16815260200190600101908083116108d9575b505050505091509450945094509450509193509193565b600182805160208101820180518482526020830160208501208183528095505050505050818154811061096c57600080fd5b906000526020600020016000915091509054906101000a900473ffffffffffffffffffffffffffffffffffffffff1681565b60006001826040516109b0919061109d565b9081526020016040518091039020805490509050919050565b6000604051905090565b600080fd5b600080fd5b600080fd5b600080fd5b6000601f19601f8301169050919050565b7f4e487b7100000000000000000000000000000000000000000000000000000000600052604160045260246000fd5b610a30826109e7565b810181811067ffffffffffffffff82111715610a4f57610a4e6109f8565b5b80604052505050565b6000610a626109c9565b9050610a6e8282610a27565b919050565b600067ffffffffffffffff821115610a8e57610a8d6109f8565b5b610a97826109e7565b9050602081019050919050565b82818337600083830152505050565b6000610ac6610ac184610a73565b610a58565b905082815260208101848484011115610ae257610ae16109e2565b5b610aed848285610aa4565b509392505050565b600082601f830112610b0a57610b096109dd565b5b8135610b1a848260208601610ab3565b91505092915050565b6000819050919050565b610b3681610b23565b8114610b4157600080fd5b50565b600081359050610b5381610b2d565b92915050565b60008115159050919050565b610b6e81610b59565b8114610b7957600080fd5b50565b600081359050610b8b81610b65565b92915050565b60008060008060808587031215610bab57610baa6109d3565b5b600085013567ffffffffffffffff811115610bc957610bc86109d8565b5b610bd587828801610af5565b9450506020610be687828801610b44565b9350506040610bf787828801610b7c565b925050606085013567ffffffffffffffff811115610c1857610c176109d8565b5b610c2487828801610af5565b91505092959194509250565b600080600080600060a08688031215610c4c57610c4b6109d3565b5b600086013567ffffffffffffffff811115610c6a57610c696109d8565b5b610c7688828901610af5565b9550506020610c8788828901610b44565b9450506040610c9888828901610b44565b9350506060610ca988828901610b7c565b925050608086013567ffffffffffffffff811115610cca57610cc96109d8565b5b610cd688828901610af5565b9150509295509295909350565b600060208284031215610cf957610cf86109d3565b5b600082013567ffffffffffffffff811115610d1757610d166109d8565b5b610d2384828501610af5565b91505092915050565b610d3581610b23565b82525050565b6000819050919050565b610d4e81610d3b565b82525050565b600073ffffffffffffffffffffffffffffffffffffffff82169050919050565b6000610d7f82610d54565b9050919050565b610d8f81610d74565b82525050565b610d9e81610b59565b82525050565b600081519050919050565b600082825260208201905092915050565b60005b83811015610dde578082015181840152602081019050610dc3565b60008484015250505050565b6000610df582610da4565b610dff8185610daf565b9350610e0f818560208601610dc0565b610e18816109e7565b840191505092915050565b600060e082019050610e38600083018a610d2c565b610e456020830189610d2c565b610e526040830188610d45565b610e5f6060830187610d86565b610e6c6080830186610d95565b81810360a0830152610e7e8185610dea565b9050610e8d60c0830184610d95565b98975050505050505050565b600081519050919050565b600082825260208201905092915050565b6000819050602082019050919050565b610ece81610d74565b82525050565b6000610ee08383610ec5565b60208301905092915050565b6000602082019050919050565b6000610f0482610e99565b610f0e8185610ea4565b9350610f1983610eb5565b8060005b83811015610f4a578151610f318882610ed4565b9750610f3c83610eec565b925050600181019050610f1d565b5085935050505092915050565b6000608082019050610f6c6000830187610d2c565b610f796020830186610d45565b8181036040830152610f8b8185610ef9565b9050610f9a6060830184610d95565b95945050505050565b610fac81610d3b565b8114610fb757600080fd5b50565b600081359050610fc981610fa3565b92915050565b60008060408385031215610fe657610fe56109d3565b5b600083013567ffffffffffffffff811115611004576110036109d8565b5b61101085828601610af5565b925050602061102185828601610fba565b9150509250929050565b60006020820190506110406000830184610d86565b92915050565b600060208201905061105b6000830184610d45565b92915050565b600081905092915050565b600061107782610da4565b6110818185611061565b9350611091818560208601610dc0565b80840191505092915050565b60006110a9828461106c565b915081905092915050565b7f446f63756d656e74206e6f7420666f756e640000000000000000000000000000600082015250565b60006110ea601283610daf565b91506110f5826110b4565b602082019050919050565b60006020820190508181036000830152611119816110dd565b9050919050565b7f446f63756d656e742068617368206d69736d6174636800000000000000000000600082015250565b6000611156601683610daf565b915061116182611120565b602082019050919050565b6000602082019050818103600083015261118581611149565b9050919050565b60006060820190506111a16000830186610d2c565b6111ae6020830185610d45565b6111bb6040830184610d86565b949350505050565b7f452d5365616c20616c72656164792065786973747320666f722074686973204960008201527f4400000000000000000000000000000000000000000000000000000000000000602082015250565b600061121f602183610daf565b915061122a826111c3565b604082019050919050565b6000602082019050818103600083015261124e81611212565b9050919050565b7f4e487b7100000000000000000000000000000000000000000000000000000000600052602260045260246000fd5b6000600282049050600182168061129c57607f821691505b6020821081036112af576112ae611255565b5b50919050565b60008190508160005260206000209050919050565b60006020601f8301049050919050565b600082821b905092915050565b6000600883026113177fffffffffffffffffffffffffffffffffffffffffffffffffffffffffffffffff826112da565b61132186836112da565b95508019841693508086168417925050509392505050565b6000819050919050565b600061135e61135961135484610d3b565b611339565b610d3b565b9050919050565b6000819050919050565b61137883611343565b61138c61138482611365565b8484546112e7565b825550505050565b600090565b6113a1611394565b6113ac81848461136f565b505050565b5b818110156113d0576113c5600082611399565b6001810190506113b2565b5050565b601f821115611415576113e6816112b5565b6113ef846112ca565b810160208510156113fe578190505b61141261140a856112ca565b8301826113b1565b50505b505050565b600082821c905092915050565b60006114386000198460080261141a565b1980831691505092915050565b60006114518383611427565b9150826002028217905092915050565b61146a82610da4565b67ffffffffffffffff811115611483576114826109f8565b5b61148d8254611284565b6114988282856113d4565b600060209050601f8311600181146114cb57600084156114b9578287015190505b6114c38582611445565b86555061152b565b601f1984166114d9866112b5565b60005b82811015611501578489015182556001820191506020850194506020810190506114dc565b8683101561151e578489015161151a601f891682611427565b8355505b6001600288020188555050505b505050505050565b7f452d5365616c206e6f7420666f756e6400000000000000000000000000000000600082015250565b6000611569601083610daf565b915061157482611533565b602082019050919050565b600060208201905081810360008301526115988161155c565b905091905056fea2646970667358221220f094bdf29828fc7d828958c058f2e19cf11d90d0bcbf469262eacdc7b58be3aa64736f6c63430008140033",
  "linkReferences": {},
  "deployedLinkReferences": {}
}